:100000006F00D01C00000000F2010000F4010000AD
:1000100000000000000000000000000000000000E0
:1000200000000000000000000000000000000000D0
:10003000CA09000000000000CA090000000000001A
:10004000CA090000CA090000CA090000CA09000064
:10005000CA090000CA090000CA090000CA09000054
:10006000CA090000CA090000CA090000CA09000044
:10007000CA090000CA090000CA090000CA09000034
:1000800074160000CA090000CA090000CA0900006D
:10009000CA090000CA090000CA09000000000000E7
:1000A000511126C022C206C4828282441244A24058
:1000B000310182802A86014593F6150091C232955E
:1000C00085810606F5F9828000000000634E050276
:1000D00063C305042E86AA857D5515C285466378BF
:1000E000B6006356C00006068606E36CB6FE014500
:1000F00063E4C500918D558D85820582F5FA828075
:100100008682C93F2E8582823305A04063D70500D1
:10011000B305B040C1B7B305B0408682653F330533
:10012000A0408282868263C70500634905005D376F
:100130002E858282B305B040E35B05FE3305A04007
:10014000513F3305B040828200003D432A876373EC
:10015000C3029377F700BDEFADE5937606FF3D8AC6
:10016000BA960CC34CC30CC74CC74107E36BD7FE10
:1001700011E28280B306C3408A0697020000969679
:100180006780A6002307B700A306B7002306B700C1
:10019000A305B7002305B700A304B7002304B700E5
:1001A000A303B7002303B700A302B7002302B700DD
:1001B000A301B7002301B700A300B7002300B700D5
:1001C000828093F5F50F93968500D58D9396050162
:1001D000D58D61B793962700970200009696868288
:1001E000E78086FA9680C1171D8F3E96E374C3F8A8
:1001F000A5B701A001A0EFF2BFEA1301C1FD61465E
:1002000081456800993785451305000302C002C285
:1002100002C4EF007054854513050020EF00D05351
:100220003165EF003047C1478A85371501403724D3
:1002300001407C8002C4EF00501B13050440EF0016
:10024000700185476C00130504402300F10202C6CB
:1002500002C802CA02CC02CEEF0030028545130567
:100260000440EF00F0149D460546894513050440FF
:10027000EF00700C854513050440EF003008B7050A
:10028000000213050440EF001015854513050440D6
:10029000EF00F007854513050440EF009008854501
:1002A00013050440EF00500213050440EF00D00294
:1002B000930404402685EF00D0026DFD1305044031
:1002C00037240140EF007002130404402285EF0040
:1002D00070026DFD13014102C9BBEFF27FDCAA84FD
:1002E0000565130141FD2E8413050581854532C046
:1002F00002C802CA02CC02CE02D002D202D402C28A
:1003000002C423160100EF003045A147FC80E147FD
:100310003ECC0C088D47371501403ECAEF00F00C6B
:100320006082373401404C00130504C064842315F7
:10033000010023130100EF00D0490246C1679387F3
:1003400007063ECE6C088947130504C02311C1027D
:100350002312F102EF00D04C130504C08545EF00D5
:10036000F056130504C08145EF005059130504C031
:100370008545EF001057130504C093050002EF00F8
:10038000D0588545130504C0EF00D0521301C102B7
:1003900029BBEFF2FFD0511185451305400302C080
:1003A00002C202C4EF00503B854537050010EF0044
:1003B000903C37140140FD57130504807C808A85EA
:1003C000930780023EC4EF0050028A853715014032
:1003D000EF00B001130504408A8537040020EF00C8
:1003E000D000130404041E2448408D447C808A8578
:1003F000C1473EC426C2EF00407F1A284844C14787
:100400008A8578803EC426C2EF00207E0E244840B4
:100410000546EF00900B48440E280146EF00F00A15
:100420000545EF00702813051006EF00903865DDD4
:100430000145EF00B01B0545EF00901C3101B5B13F
:10044000130141FC06DC22DA26D86018092BB70418
:100450000020EF101001938704040D4798C309672B
:1004600013070758D8CB3717014013070740D8C3E5
:10047000D8C7A146414796A79AAB1387119298CF48
:1004800013874182D8CF138601921385040490D339
:10049000EF0030718D33B1651306401F9385F5B7BA
:1004A0001305803E1D3D9305000237150140EF10F6
:1004B000206213858192138641938545EF10E06198
:1004C000EF106014938711922324F4FE9387019216
:1004D0002326F4FE2328F4FCB727000083A7475DFA
:1004E000232A94FC2322D4FE938441822322F4FC09
:1004F000B7270140138707403A858945E125B7278B
:100500000140138707406DD93A858945C925B7272A
:100510000140138707403A8591456D25B727014073
:10052000138707406DD93A8591455525832704FDEA
:100530001386C19383A5C19203A58192EF106070C9
:100540001383C19337270000032503008325075D2C
:10055000EF10502CEF10105593868193B727014070
:1005600083A5C7438AA21305F03F0D8DEF10506598
:10057000372700008325075DEF10D029832544FC31
:10058000EF10A078372700008325075DEF10902833
:10059000EF105051938701938AA3832784FE13871A
:1005A00081939C232326E4FC1387019393F7F70F91
:1005B0002324E4FCE38E07F2EF10A0029C2093F7C3
:1005C000F70F81CB370700209C2003470700631CEF
:1005D000F7148327C4FE232024FE29479C23FD17FC
:1005E000A6979C23630BF7008327C4FE9C23FD176B
:1005F000A6979C2393F7F70F91EB8327C4FE03275D
:10060000C4FE9C23FD1793F7F70F1CA38327C4FE9A
:100610009C238D0793F7C71F3301F1408327C4FE46
:100620000A859023832744FE93854182EF10106D45
:100630008327C4FE0A858C23F91593F5F50FEF0087
:10064000905365C19C30114793F7F70F638FE70410
:1006500019476388E7140D476395E70CBC200547ED
:1006600093F7F70F639FE70AB8301377F70F630E1E
:1006700007106318F70AB707002093870704DC4BBD
:10068000A30904FE014781469305004B1376F70F3B
:1006900005076395B71099C2A309C4FE85461306E2
:1006A00034FF8D45B7070020FDA0DC30232E24FC4D
:1006B00081458607910793F7C73F3301F140DC304E
:1006C0000A8686075C80DC20D830A207D98FB82044
:1006D000BE80BC302207D98F232CF4FC832784FCF6
:1006E00003D307008327C4FC935383008A23137327
:1006F000F30F8147935285001375F50F939605010B
:10070000C18263ED1602D430B707002003C507008D
:100710008606850693F6F60F9145EF00903D03217E
:10072000C4FD032104FE832784FE23800700832762
:10073000C4FE23800700EF00106D5DBB032784FD1E
:10074000B306B70091C605476382E60285057DB70B
:1007500093861700C2068907C182C207B296C18379
:1007600023805600B306F60088A2CDB79386170003
:10077000C2068907C182C207B296C1832380760070
:10078000B306F60023806600D1B7B7070020854680
:10079000138607008D4503C5070099A08583AA86A7
:1007A000F5B5B82085471377F70FE31CF7F6BC3093
:1007B00093F7F70F6389E70299C71307F00FE392E6
:1007C000E7F6C13EB9BFD830B70700208546238081
:1007D000E700DC30C830130634FFA309F4FE994566
:1007E000EF0030313DBFDC30D83093F7F70FA3096D
:1007F000E4FE1307004B8DE7B7070020938707043B
:10080000D8CB832744FD13850704EF00F05A130566
:10081000803EEF10E04B8546130634FF994559B5ED
:10082000FD17060793F7F70FF9B7EFF27F87371435
:1008300002401C403707FFFC611193E717001CC002
:100840005C404145F98F5CC01C403707F7FE7D17BF
:10085000F98F1CC01C403707FCFF7D17F98F1CC0A7
:100860005C4041777D17F98F5CC0B7079F001CC4BF
:10087000092D1C4C3706020093E707021CCCB71762
:10088000014003A70740938607401377F7F023A0A2
:10089000E74003A707401367070823A0E7408947FD
:1008A0009CCA02C002C21C4C37070140A16693E7F4
:1008B00017001CCC5C43D58F5CC31C404167B71646
:1008C0000240D98F1CC009679C42F18F3EC282470B
:1008D00085073EC0924781E78247E397E7FEB71757
:1008E00002409C431397E7006359070685473EC2C1
:1008F000124785476310F706B72702409843C17631
:10090000FD16719B98C398431367170098C3B717D8
:100910000240D843D8C3D843758FD8C3D843C166E3
:10092000558FD8C39843B7060001558F98C3984395
:1009300093166700E3DD06FED843B7160240719BAD
:10094000D8C3D84313672700D8C32147DC42B18BF3
:10095000E39EE7FE21016FF04FF502C251BFEFF2B7
:100960002FF4371702405C43370400209146B18BC7
:10097000130444016385D700A1466382D704B737C7
:100980006E01938707601CC0B7160240DC42084026
:10099000918313F7F700B707002093874700BA97B2
:1009A0008C23DC4293F5F50F93F707083357B50016
:1009B00081E7EFF02FF22A8718C06FF00FEF5C434A
:1009C000B777DC02938707C07DBF01A097010020A5
:1009D000938141E7138101FC17250000130545DCD5
:1009E00097F5FF1F9385056217F6FF1F13068665AF
:1009F00063FAC5008322050023A055001105910567
:100A0000E3EAC5FE17F5FF1F1305C5639385C1957E
:100A10006377B500232005001105E36DB5FEB7220D
:100A2000000093820288739002308D42739042805E
:100A300097F2FFFF9382025D93E23200739052308F
:100A4000EFF0BFDE970200009382C29F73901234D2
:100A500073002030B727014093870740631EF500DD
:100A6000EFF20FE48545130500202D238145130582
:100A700000200D236FF06FE382805C413707F1FFA8
:100A80001307F7EF7D8FDC419441A207D58FD98FF3
:100A90005CC11C4537F7F1FF1307D77FD4457D8F25
:100AA0009C49D58F94458606D58FD98F1CC55C553A
:100AB000370710FF7D177D8FDC29FD1793F7F70FA0
:100AC000D207D98F5CD582801C4589C593E7170072
:100AD0001CC58280F99BEDBF1C4593E787001CC5B0
:100AE000828008450D81058982801C4593E7470077
:100AF0001CC5828008450981058982805C4149774F
:100B00007D17FD15F98FB605DD8D4CC182805C41E6
:100B100089C50567D98F5CC182807D777D17F98F84
:100B2000DDBF1C4589C52167D98F1CC582806177CF
:100B30007D17F98FDDBFA54763FBB704138765FFFA
:100B4000931717008322C500BA971D433313F30090
:100B50001343F3FF33735300B397F600B3E7670013
:100B60005CC5185D0906935747018D8B1D8E137662
:100B7000F60F931726003E96FD47B397C70093C71D
:100B8000F7FFF98FB395C500DD8D0CDD828093975B
:100B9000150003230501AE971D473317F7001347D0
:100BA000F7FF33776700B397F6005D8F18C955BF1D
:100BB0001C5D3707D0FF7D17FD15F98FD205DD8D40
:100BC0000CDD828008416D8D3335A000828093C595
:100BD000F5FF0CC182805C41370700FA7D17F98F61
:100BE0005CC15C41DD8D4CC182809C45611122C29B
:100BF00026C013F7070113F3F70001C7D841336389
:100C0000E30092211377F60F29C7832305000147DC
:100C100013048002930480048546B395E600B376FE
:100C2000B6006392D50293122700BD46B3965600D4
:100C300093C6F6FFB3F37600B3125300B3E372002A
:100C4000639787064CC90507A146E317D7FC232005
:100C500075001307F00F6378C70483234500A1468E
:100C600013048002930480040547B312D70033773E
:100C700056006394E202139726000117BD45B39511
:100C8000E50093C5F5FFB3F375003317E300B363D5
:100C9000770063928702232A550085064147E39532
:100CA000E6FC232275001244824421018280E39CE9
:100CB00097F80CC949BFE39297FE23285500F1BF6E
:100CC00008456D8D3335A000828019C20CC9828021
:100CD0004CC9828037030140032743009317350036
:100CE00063D00702B707C0FFF517F98F3707000772
:100CF000D98FD9CD370700F07D17798DC98F49A8D5
:100D0000635D0500B707E0FFED17F98F37070007B0
:100D1000D98FBDCD06050581D5B7B707300093162D
:100D200005013376F500C1826313F602370600F938
:100D30007D16B377C70003274300798E2322C300B3
:100D4000A1C95581131745003395E60045BF931798
:100D5000B50063D407029357050113F6F7008D47DA
:100D6000B397C70093C7F7FFF98F37070007D98FED
:100D700085C1135755011207C1BF5581120533951F
:100D8000A6009347F5FFF98F37070007D98FBDF508
:100D9000370701405CC3828083A6019485471821F0
:100DA0006390F6021C31639CD7023C219A0793E7BB
:100DB00007F8B7E600E093F7F70FBA962380F640FE
:100DC0008546935757003397E600544189CE938761
:100DD00007048A07B7E600E0B69798C38280EDF370
:100DE0003C219A07F9B793870706E5B737770040A4
:100DF0001C4709C593E727001CC78280F59BEDBF00
:100E0000B77700409843759B98C3984313672700B2
:100E100098C3B7F700E003A707D11367470023A8DB
:100E2000E7D005476311E50203A707D15D9B23A81F
:100E3000E7D07300501037F700E0832707D1ED9B10
:100E40002328F7D0828083A607D103A707D193F682
:100E500006021367870223A8E7D003A707D11377F9
:100E6000F7FD558F23A8E7D003A707D113678700A5
:100E700023A8E7D07300501003A707D1136787009A
:100E80007DB7371702401C430E0593F777F05D8D51
:100E900008C38280B7160240DC4241771307F77F10
:100EA000F98F5D8DC8C28280371702405C5309C537
:100EB00093E717005CD38280F99BEDBFEFF24F9E62
:100EC000371702405C4391462A84B18B6385D70073
:100ED000A146638DD706B7376E01938707601CC0A4
:100EE000B7160240DC42918313F7F700B7070020E2
:100EF0009387C702BA978C23DC42184093F5F50F0D
:100F000093F707083355B70081E73A85EFF08F9CD8
:100F100048C008C448C4B7170240DC43AD83FD8B0A
:100F200013D737008A07F18BD98F93F637010D4716
:100F30006373D700D1173707002013078701BA97CB
:100F40008C23EFF02F9908C86FF02F965C43B7778A
:100F5000DC02938707C061B799C5371702401C4F61
:100F60005D8D08CF8280B7170240984F1345F5FF7B
:100F7000798D88CF828099C5371702405C4F5D8D8F
:100F800048CF8280B7170240D84F1345F5FF798DBF
:100F9000C8CF828099C5371702405C475D8D48C72E
:100FA0008280B7170240D8471345F5FF798DC8C72F
:100FB00082801357550085476319F700B717024021
:100FC0009C4333D5A70005898280B7170240DC53C4
:100FD000CDBF1E2137370140130707C0C207C183A9
:100FE0006306E500370700406316E500BA2193F772
:100FF000F7F8D98FFA2193F7F7CFC207C183D98FBA
:101000001EA1DE215EB59E211EB5B7370140938734
:1010100007C06314F5009C251EB985475EA9828030
:101020001E31922103D38500C207C18393F7F7EFE6
:10103000C207C1831EB11E3156215A2DC207C1837A
:10104000420741831377C7F8518FB22193F7F7DF37
:10105000C206336666002206D18F13960701B737A2
:101060000140938707C0C1824182631FF502FD776B
:101070009387F77FF18FB22503D3C5002206D18F66
:10108000D221C207C183220693F7F7BFD18F1396EF
:101090000701F577FD17FD8EFE254182B3E7670056
:1010A0009207DD8EC206C182FE2156A15AAD5CDDDB
:1010B00012B182801E2189C593E717001EA182808C
:1010C000C207C183F99BC207C183CDBF83574504C3
:1010D00091C52167D98F2312F5048280C607C58385
:1010E000DDBF1E2189C593E707081EA18280C207C4
:1010F000C18393F7F7F7C207C183C5BF5E2DC2074F
:10110000C183DD9BDD8D4EAD82805E21C207C18330
:1011100093F7F7F8C207C1835EA15E21DD8D4EA172
:101120008280B747014093870780631CF500EFE298
:101130003FF785451165B93D81451165A13D6FE0DA
:10114000DFF68280EFE2DFF51629F577FD17F58FE0
:10115000F621DA252111D58F1EA95625FD77938713
:10116000379FF58FD6212A842EC0D58F9625D58F0F
:10117000B625D58F5EA55E29C207C18393F7F7CF49
:101180005D8F5AA948001D3BB747014093870780F0
:1011900082456312F406C2475A24139517003E9500
:1011A00042070E0541873E958C416358070486052A
:1011B000EFE05FF2930540062AC0EFE0BFF18247FF
:1011C00093144500930540063E85EFE07FF35E24CF
:1011D000C207C18763D507020E05930540061305B4
:1011E0002503EFE03FEF1D89C98CC204C18006A42E
:1011F00061016FE09FEBB24745B78A0555BF120505
:101200009305400613052503EFE0DFEC3D89E9BFB8
:1012100091C55E250967D98F5EA582805A25F97729
:10122000FD17F98FD5BF13F7F50F85471583B395D4
:10123000B7006319F7009307C500984301CED98D15
:101240008CC38280894693074501E318D7FE930734
:101250000501E5B793C5F5FFF98DDDB793F5F51FEA
:101260004EA182804A211375F51F82800A216D8D5F
:101270003335A000828013F7F50F85461583B397A9
:10128000B6006311D7025A25F98F1A21014542078A
:10129000418381CB0545A181B315B5006D8F3335F1
:1012A000E000828089466314D7001A29F1BF5A29C9
:1012B000E1BFC16769738146FD17050313F7F60F98
:1012C0006367B70013D7870018B21CA28280330768
:1012D000D5001823B98F214793F2170085836386C1
:1012E0000200B3C76700C207C1837D1775F7850683
:1012F000F1B731119387760022C626C406C840088C
:1013000093F7C71F3301F140138736008A84488062
:10131000CC80814763C7D704938526002685138632
:10132000419493F5F50F2326E4FE2328D4FE51378C
:10133000832604FF938741948C230327C4FE9C33A8
:101340003386D4002CA22697910626851CA393F5FC
:10135000F60FE12C1301C4FEC2403244A2445101F5
:1013600082803305F6000821B385F4008507E20783
:10137000A8A1E18745B7EFE2BFD271110A862A849E
:10138000AE84053FB305940018809C210545630792
:10139000F70088319C801D8D1335150011016FE019
:1013A000DFD0EFE2FFCF04411301C1FD23A4A194DC
:1013B00002C402C602C802CA02CC02CE02D002C0D7
:1013C00002C28947138481946389F41663E9970EF6
:1013D00085476388F412B744014013850480913334
:1013E0001C404C0813850480DC4B02CC2310010206
:1013F0003ECAB7070C003ECEB133054693055052A6
:10140000138504800D35930700027C8085475C813D
:101410000A8585473EC2EFF03F98854513850480D5
:10142000C53B1840B7170140938707805443638535
:10143000F60058476315F70085451145313E1840C1
:10144000B717014054436385F60058476315F7000A
:101450008545414511361840B7170140938707402D
:1014600054436385F60058476316F7008545130516
:101470000002DD341C408D442C009A27C84326C648
:10148000788441473AC8EFF04FF61C4041472C00A2
:10149000962BC8473AC8748426C6EFF00FF51C4057
:1014A00001468E27C843EFF05F821C4001468E2B19
:1014B000C847EFF09F81130141026FE01FBF0D4746
:1014C0006381E40C9146E398D4F0116585454505A8
:1014D00061343705208085451105EFF0AFFF0D47DA
:1014E00085463AC62C0061473715014074843AC8D6
:1014F000EFF0AFEF89477C8426C82C0037150140F8
:10150000B5A81165854513050502B9349307000296
:101510007C84B71401408D473EC62C00E1471385FB
:1015200004403EC8EFF06FEC930700047C849147C1
:101530003EC82C001385044091A011658545130514
:101540001502EFF07FA13705008085451105EFF00A
:101550006FF885477C848D473EC6E1473EC8B71784
:101560000140138507402C00EFF02FE81147B71713
:10157000014064843AC82C0013850740EFF0EFE681
:1015800099BD1165854513051502EFF0FF9C854552
:1015900037052080EFF00FF49307000426C6B71438
:1015A00001407C842C00E147138504403EC8EFF0E5
:1015B000CFE3930700029DBFEFE29FAE23A4A19467
:1015C0005C4941113745014002C43EC08A85B1479C
:1015D000130505807C8502C202C6AD3641016FE06D
:1015E000DFACEFE2FFAB138481941C4005468E27ED
:1015F000C843EFF08FED1C4005468E2BC847EFF037
:10160000CFEC6FE09FAAEFE2BFA9138481941C4046
:1016100001468E27C843EFF04FEB1C4001468E2B4E
:10162000C847EFF08FEA6FE05FA8EFE27FA7AA84D8
:101630002E84453F01E813054006EF006069E1375D
:101640006FE0BFA62945EF00A068B74701401387A8
:1016500007803A85930500081139B7470140138781
:10166000078065D98C203A857D14CD3E1374F40F24
:101670008504C9B7711122C0374401409305505207
:1016800013050480CD3E0DC913050480E13E83A7F8
:1016900081941375F50F0546985393054042142322
:1016A000D84F369708A39853130504801C23850749
:1016B00093F7F70F1CA3853E374401409305404242
:1016C000130504804D3E01CD0146930540421305AC
:1016D0000480913E83A7819405479C4F98A30244C0
:1016E000110173002030EFE2BF9B71119545110588
:1016F000EFE0DF9D2AC08144138701954E23084304
:10170000EFF00FDC1387019509E91545692382473E
:10171000850413870195E3C1F4FE4E230843EFF0DF
:101720002FDA2A840545852B3335800011016FE0BF
:10173000DF97EFE2FF9629457D377D540DC913846D
:1017400001954E2008400146EFF02FD80D45A1230A
:101750004E2008400546EFF04FD729452D2B4E204F
:101760000840EFF0EFD52A84130550032D2322857E
:101770006FE0BF93EFE2DF92138701955A23511177
:1017800023110100788093870195414711C151478A
:1017900088433AC48A850D473AC2EFF00FC531013C
:1017A0006FE0BF90EFE2DF8F7111AA842945253FDA
:1017B000AA8705C51384019508404E209DC00146A7
:1017C000EFF0AFD02945C1294E2008400546EFF083
:1017D000CFCF13057003C121A6873E8511016FE0AD
:1017E000DF8C01463EC0EFF04FCE1305100465219B
:1017F0004E2008400546EFF04FCD15456929824738
:10180000E9BFEFE2FF8993870195CEA388C3B7179D
:1018100001401387078085456317E5001145EFF008
:10182000AFF36FE09F886314F5004145CDBF13050A
:101830000002F5B7EFE2DF8605452D3F13840195E1
:1018400008404E200546EFF04FC81305A00F613D3C
:1018500015CD4E2008400146EFF02FC71305001E9E
:101860001D294E2008400546EFF02FC613056004E1
:101870001D214E200840EFF0AFC42A841305A019A3
:101880009D3509C5133514006FE03F820145EDBF5A
:10189000EFE21F817111AA87A144054433F5870047
:1018A0003335A0003EC0FD3D19C50604FD14137478
:1018B000F40F8247E5F411016FE02FFFEFE24FFED6
:1018C0007111A147054481443EC0A535634E050012
:1018D000824711C1C18C0604FD171374F40FEDF794
:1018E000268511016FE06FFCFD54DDBFEFE24FFB79
:1018F0007111AA84130550052EC0593F0DC58245AC
:10190000214413F5F40F2EC0613711CD82457D14AB
:10191000A180939785011374F40FDD8CA18175F07C
:1019200011016FE08FF80145E5BFEFE26FF7130596
:10193000C00CB93F6FE06FF7EFE28FF629456533D2
:101940002A8411C901453D3593870195CE238843EB
:101950000546EFF08FB722856FE02FF5EFE24FF4E9
:101960000545093D6FE06FF4EFE28FF329468145AD
:10197000EFE0AFFD6FE06FF3EFE28FF2183531115A
:10198000AA8401CF23840400A38404002386019445
:101990007D55FD5551016FE04FF12EC2613D2AC0CA
:1019A000924511E523840400A3840400D5B72E8555
:1019B000C535854681450144054736C82EC63AC41B
:1019C0008D3B13168501618632C2A533124662052E
:1019D000854261852247B245C246631156046316AB
:1019E000C50493060004E3FFE6F880A419E0054768
:1019F00098B4982041DB014581451D47FD5633834E
:101A0000E4000343030013568501A20522057D1758
:101A10003365A300D18DE314D7FEADBFB382B4000C
:101A200083C202006300A60421CE3386B4001022D4
:101A30000245558EB382B4002380C20036C63AC434
:101A40002EC28D33B246224792458606050793F68D
:101A5000F60F1377F70F99E2850585461D46E35E7D
:101A6000B6F441B790246373C70233F65600333699
:101A7000C00045FE21463A846364E6002386E19473
:101A800013C6F6FF3376560001456DB7198E13362F
:101A90001600C5B7EFE2CFE09305000FF13D6FE010
:101AA000CFE0AA9581476314B5003E858280050585
:101AB0008346F5FF214733C6D700058A858309C6CB
:101AC00093C7C7F893F7F70F7D1785826DF7E1BFCE
:101AD000EFE20FDD3D336FE04FDDEFE26FDC4111F0
:101AE000232006002A84480032C0AE84B53D024659
:101AF000480032C04537FD5702466318F50063962B
:101B0000A500014541016FE04FDA9376F50F938709
:101B100006FF13F7F70FE14763F1E7029307B003FE
:101B2000E398F6FC1C4263F797001397370022975F
:101B300008C34CC385071CC265BFB70704018507EE
:101B4000B3D7E700858BF9FF65B7EFE26FD5711169
:101B50002A842EC0B284F9390DC9FD57824563131A
:101B6000F40263918502D133130540041533E93340
:101B7000014489C41305E02EA12ACD332285110129
:101B80006FE0AFD222859D33C5B70544C5BFEFE2F4
:101B90002FD171112A842EC0B284EFF0BFC98547BE
:101BA00031C1FD5782456313F40463918504B53B4D
:101BB0001305E00BEFF0DFCD0144EFF03FD0B3872A
:101BC000840088A30504A147E319F4FEEFF01FCFBA
:101BD0002A84A1452685F1351374F40F81476303E8
:101BE000A40089473E8511016FE02FCC2285EFF0DC
:101BF000FFCF7DBFEFE2CFCA511132845000413F89
:101C000088821C82854422055D8D9307F07F63F7EF
:101C1000A7003305A04042054181FD54EF00407A02
:101C20002AC02685D92D8247AA853E85E526B72775
:101C3000000083A5875DF92E08C0014531016FE0E2
:101C4000CFC6EFE2EFC5711132C005462A84AE84DB
:101C5000ED3D82472285A6853E86693F11016FE0F2
:101C6000CFC4EFE2EFC3B707002003A54701B715C4
:101C70007A0093850520EFE0EFC51375F50F238DEE
:101C8000A19493175500898F8A073E950E05239CD2
:101C9000A1946FE08FC1EFE2AFC037F400E05C4089
:101CA000AA85F99B5CC003C5A195EFE0AFC008C849
:101CB000232404001C4093E717001CC0B7F700E082
:101CC000D843058B75DF9843799B98C36FE0EFBDD0
:101CD000EFE20FBD37F400E05C40AA85F99B5CC0E1
:101CE00003D58195EFE00FBD08C8232404001C40F4
:101CF00093E717001CC0B7F700E0D843058B75DFEA
:101D00009843799B98C36FE04FBA1301C1FD935676
:101D1000750126CC131695009354F50106D022CEFA
:101D200093F6F60F2582A682638B06109307F00FB9
:101D3000638CF6100E06B70700045D8E938616F8C6
:101D40000144814393D775011393950093F7F70FDF
:101D500013539300FD81E5C31307F00F6386E70279
:101D6000938717F80E03370700049D8E3363E30053
:101D700081475D8C17150000130585860A042A9497
:101D80000040AD8C22950285938616F06314030CF7
:101D900089475D8C17150000130585880A042A946D
:101DA00003230400AD8C1A95028581449305F00F3E
:101DB000B7074000139597008250724493977501BE
:101DC0002581FE045D8D458DE24413014102828030
:101DD0009305F00F8147F9BF1A86AE82BE8389470B
:101DE0006384F3228D47E382F3FC85476384F30C1D
:101DF0009385F60793F412006356B0189377760034
:101E000099C79377F60011456383A70011069317CE
:101E1000460063D80700B70700F8FD177D8E93854D
:101E200006089307E00FE3C5B7FA93176600A5838A
:101E300093F5F50F41B763180304854799BF15E281
:101E4000114481468543FDBD01EA21449306F00F0C
:101E50008943CDBD8D4731BF31449306F00F8D438B
:101E6000D5B532852EC432C026C215250246930749
:101E7000B5FF9306A0F83316F600898E014481431E
:101E80009242A245C1B51A8536CA16C832C61EC4CA
:101E90002EC21AC0ED2BD24602439307B5FFAA9675
:101EA0003313F3009386660781479245A243324677
:101EB000C242C1B593F4120081458147E5BDC167B7
:101EC00013175300FD17F98F3ACA3EC21354070186
:101ED000637D660E3285A28536C632C4EFE08F9FE1
:101EE00092452AC0EFE00F9D2246B246AA87328370
:101EF000FD160146A2851A8536C83EC632C4EFE0FB
:101F00002FA02246B2474205518DC246637FF5009D
:101F1000524782453A951386F5FF6362E50E63707A
:101F2000F50E1386E5FF32C03A95B307F5403E85BE
:101F3000A28536C83EC6EFE0EF9992452AC4EFE08D
:101F40006F97B2472AC2A2853E85EFE06F9B12468B
:101F500042052243C246637CC50052479307F3FF04
:101F60003A95636CE508637AC50879133A95824718
:101F70003306C5403336C000C207B3E767005D8E45
:101F8000A682BDB505433303B34091C56D45814578
:101F90008147E34165E29386E609B316D600B3575D
:101FA00066003336D000D18F93F6770099C693F64A
:101FB000F70011466383C6009107139757006342E9
:101FC00007049A07A5838145F5B3135316001A85B4
:101FD000A28536C832C61AC4EFE0CF8F92452AC018
:101FE000EFE04F8D3246AA87C2467E0641822243E9
:101FF00011B7AE82BE830146DDB33E838DBF32C0D2
:102000002DB7854581477DB393F412009305F00FFA
:1020100081474DB3011122CC1354750126CA06CE57
:10202000931495001374F40FA5809356F5014DCCCD
:102030009307F00F630CF40CB70700048E04DD8CDB
:10204000130414F88147014613D5750113979500C1
:102050001375F50F2583FD814DC51303F00F630D37
:1020600065020E07130515F8370300043367670090
:102070002A9481431305140033C3B6002AC03D459A
:102080009A826362F510170500001305655D8A07E3
:10209000AA979C433E9502851304F40F61EB93E7E6
:1020A00027008943C1BF01431307F00FB707400062
:1020B000F2406244A6075E07A5831315F301D98F8A
:1020C000D2445D8D05618280AE82BA841E868947C6
:1020D0006306F60A8D47E308F6FC85471683631E00
:1020E000F61A01478147E9B7B5E013D57501139793
:1020F00095001375F50F9147014405462583FD8131
:1021000029FD19EB93E717008543ADB79DE8A1477B
:102110001304F00F09460DBF3A8532C83EC62EC4DF
:1021200036C23AC0AD2602471303B5FF098C3317F8
:1021300067001304A4F881439246A245B247424681
:1021400015BFB1471304F00F0D46FDBD26852EC205
:1021500036C0352E9307B5FF1304A0F8B394F400EE
:10216000098C8147014682469245F9BD93E73700C5
:102170008D4309B78947B682E31EF6F41683130729
:10218000F00F814735B7C167FD17B3F3F400F98F3E
:10219000C18041831E85BE85EFD0DFF1AA82BA855A
:1021A0001E85EFD03FF1AA83BE852685EFD09FF034
:1021B000AA87BA852685EFD0FFEF13D70201BE9319
:1021C000BA9363F4F300C1673E95C167FD17B3F49A
:1021D000F300C204B3F2F200A6929394620093D388
:1021E0000301B334900093D2A201AA93B3E2540046
:1021F00093946300B3E454009397440063D70700BB
:10220000024493D714008588DD8C1307F407635FBD
:10221000E00293F7740099C793F7F4009146638343
:10222000D70091049397440063D80700B70700F8DC
:10223000FD17FD8C130704089307E00F63CBE70439
:1022400093976400A5831377F70F9DB58547B386F1
:10225000E74011C76D4601478147E34BD6E41304BD
:10226000E40933948400B3D7D400B3348000C58F1D
:1022700013F7770019C713F7F70091466303D700E8
:10228000910713975700634C07009A07A5830147EE
:1022900005B51307F00F814721BD0244BDB70547BF
:1022A000814739B513577501370680009307F6FF4C
:1022B0001377F70F9305E007B3F6A7009357F501DF
:1022C000014563F4E50099C3828082809307E009A9
:1022D0007D55E3EBE7FE93055009B3E7C60063D7EE
:1022E000E5001307A7F63395E70082801305600920
:1022F0003307E54033D5E7008280511106C422C27E
:1023000026C00DCD9357F54133C4A7001D8CAA8478
:102310002285B52A9307E0093387A7409307600910
:10232000FD8063CCE702A1469377F70F63D5A60043
:1023300061153314A4002604258021A0814481471F
:102340000144260413559400A2401244DE07FE0403
:102350005D8D458D8244310182809307900963DD54
:10236000E7009307B5019546B317F400898EB3567D
:10237000D4003334F000558C954763D6A7009307FB
:10238000B5FF3314F400B70600FCFD169377740014
:102390003376D40085C39377F4009145638CB700FE
:1023A00011069317560063D707009307F009758E3F
:1023B0003387A7401314660025809377F70F51B732
:1023C000511106C422C215CD2A84D1209307E009F9
:1023D0003387A7409307600963C0E704A14693775A
:1023E000F70F63D5A60061153314A40026042580D9
:1023F000260413559400A2401244DE075D8D31017E
:1024000082800144260413559400A240124481475F
:10241000DE075D8D310182809307900963DDE7005F
:102420009306B5019547B316D400898FB336D00013
:102430003354F400558C954763D6A7009307B5FF36
:102440003314F400B70600FCFD169377740033765E
:10245000D40085C39377F4009145638CB7001106CF
:102460009317560063D707009307F009758E3387DB
:10247000A740131466002580260413559400A2403B
:1024800012449377F70FDE075D8D31018280C167BB
:10249000637CF5029307F00F1307000263EBA700BC
:1024A000970700009387C71FAA9788233305A74083
:1024B00082802181970700009387871EAA9788232F
:1024C00061473305A7408280B7070001636DF500BF
:1024D0006181970700009387A71CAA97882321474B
:1024E0003305A74082804181970700009387471BEF
:1024F000AA97882341473305A7408280B3C7A50028
:102500008D8B3307C50081E78D4763E7C702AA8734
:10251000637EE50A942185078505A38FD7FEE3EB4B
:10252000E7FE8280942185078505A38FD7FEE3EB24
:10253000E7FE02441101828093763500AA8789CA9A
:10254000942185078505A38FD7FE93F63700C5BF75
:102550009376C7FF138606FE63F5C706711122C086
:10256000C04903A3050083A38500C0CB804D23A0F1
:10257000670003A3450080CFC04D23A2670083A25C
:10258000C50003A3050193854502C0CF03A4C5FF81
:1025900023A4770023A6570023A867009387470248
:1025A00023AE87FEE3EEC7FAE3F3D7F89041910735
:1025B000910523AEC7FECDBF90419107910523AE93
:1025C000C7FEE3EBD7FEE3E7E7F4828082800000FA
:1025D0000000C84200C07F440000803DE2F8FFFFD9
:1025E000F4F7FFFFDCF8FFFFFCF7FFFFDCF8FFFF6D
:1025F000CEF7FFFFDCF8FFFFFCF7FFFFF4F7FFFF6C
:10260000F4F7FFFFCEF7FFFFFCF7FFFF02F8FFFF35
:1026100002F8FFFF02F8FFFFCEF7FFFFB4F7FFFF5E
:10262000B4F7FFFF9CF8FFFFD6F9FFFF9CF8FFFF10
:102630008EF7FFFF9CF8FFFFD6F9FFFFB4F7FFFF0F
:10264000B4F7FFFF8EF7FFFFD6F9FFFFC2F7FFFFDA
:10265000C2F7FFFFC2F7FFFF8EF7FFFF2AFBFFFF66
:102660006EFAFFFF6EFAFFFF6CFAFFFF72FAFFFFD0
:1026700072FAFFFF4AFAFFFF6CFAFFFF72FAFFFFE0
:102680004AFAFFFF72FAFFFF6CFAFFFF18FBFFFF29
:1026900018FBFFFF18FBFFFF4AFAFFFF00010202D1
:1026A00003030303040404040404040405050505EA
:1026B00005050505050505050505050506060606C6
:1026C00006060606060606060606060606060606AA
:1026D0000606060606060606060606060707070796
:1026E000070707070707070707070707070707077A
:1026F000070707070707070707070707070707076A
:102700000707070707070707070707070707070759
:102710000707070707070707070707070808080845
:102720000808080808080808080808080808080829
:102730000808080808080808080808080808080819
:102740000808080808080808080808080808080809
:1027500008080808080808080808080808080808F9
:1027600008080808080808080808080808080808E9
:1027700008080808080808080808080808080808D9
:1027800008080808080808080808080808080808C9
:0C279000080808080808080808080808DD
:10279C0011000000010203040506070801020304EE
:1027AC0005060708006CDC020204060804080C107D
:1027BC0008101820102030402040608001020304D3
:1027CC0005060708010203040506070800000000BF
:00000001FF
