:100000006F00E078000000004A0100004C01000091
:1000100000000000000000000000000000000000E0
:1000200000000000000000000000000000000000D0
:100030008C070000000000008C070000000000009A
:100040008C0700008C0700008C0700008C07000064
:100050008C0700008C0700008C0700008C07000054
:100060008C0700008C0700008C0700008C07000044
:100070008C0700008C0700008C0700008C07000034
:100080000C1600008C0700008C0700008C07000095
:100090008C0700008C0700008C07000000000000A7
:1000A000511126C022C206C4828282441244A24058
:1000B000310182802A86014593F6150091C232955E
:1000C00085810606F5F9828000000000634E050276
:1000D00063C305042E86AA857D5515C285466378BF
:1000E000B6006356C00006068606E36CB6FE014500
:1000F00063E4C500918D558D85820582F5FA828075
:100100008682C93F2E8582823305A04063D70500D1
:10011000B305B040C1B7B305B0408682653F330533
:10012000A0408282868263C70500634905005D376F
:100130002E858282B305B040E35B05FE3305A04007
:10014000513F3305B0408282000001A001A0EFF2D0
:100150003FF5511102C002C202C4EF102004EF109B
:10016000D018854513054003EF00903985453705C4
:100170000010EF00D03A37140140FD5713050480FA
:100180007C808A85930780023EC471258A85371555
:1001900001405125130504408A8537040020A52D10
:1001A000130404041E2448408D447C808A85C14782
:1001B0003EC426C28D251A284844C1478A857880C6
:1001C0003EC426C2892D0E2448400546EF00007229
:1001D00048440E280146EF0060710545EF005027A6
:1001E00013051006EF00703765DD0145EF00D01BE9
:1001F0000545EF00B01C31014DBD397106DE22DC32
:1002000026DA80000545EF009014B7040020192B72
:10021000EF10101A1387040485471CC3896793875E
:1002200007585CCBB7170140938707405CC35CC796
:10023000C1471EAB938711921CCFA14616A7938688
:10024000418254CF93850192138504040CD3EF109F
:10025000C00B616589451305056AEF10E042014551
:10026000EF10B00785450545EF10B00913055004A0
:10027000EF10100DEF00304EEF009078EF0010728D
:10028000EF007076EF009065EF1060319387040403
:100290002324F4FE938711922322F4FE9384418257
:1002A000938701922326F4FE130524FF230904FEFD
:1002B000EF0090701385C192EF10500C034724FF9C
:1002C00021C7138681929385019313852192EF00B4
:1002D000706693860193373700008842832547AEC6
:1002E000EF109078EF20A0593737000013838192E8
:1002F0002397A192832547AE03250300EF10D07604
:10030000EF20E0572392A192832744FE982313778E
:10031000F70F59DBEF10602698201377F70F01CB0A
:10032000B7060020982083C60600639AE616832746
:10033000C4FE232424FCA94698237D17269718235E
:100340006389E60098237D17269718231377F70F04
:1003500001EB8327C4FE98237D171377F70F98A32B
:100360008327C4FE93854182982390230D0713773A
:10037000C71F3301E1400A85EF2080698327C4FE4F
:100380000A858C23F91593F5F50FEF005075630678
:100390000510983091461377F70F630DD7049946EF
:1003A0006307D71C8D46631AD70EB820854613778E
:1003B000F70F6314D70EB43093F6F60F638D06185B
:1003C000639DE60C832784FEA30904FE8146D84B77
:1003D00001461303004B93F5F60F85066316671865
:1003E00019C2A309B4FE8546130634FF8D453707AD
:1003F000002085AAD830232224FC81450607110756
:100400001377C73F3301E140D8300A868943060796
:100410005880D820D4308D402207B367D700B82049
:10042000B4302207558F2320E4FC03D7C1929356A2
:1004300087001377F70F232AE4FC03D72192232C9C
:10044000D4FC935687001377F70F2326E4FC03D7D9
:1004500041922328D4FC935687001377F70F232E5D
:10046000E4FC03D5E1922320D4FE01471353850019
:100470001375F50F93960501C18263EDF602D43032
:1004800037070020034507008606850693F6F60F1A
:100490009145EF00905C032144FC032184FC8327F9
:1004A00044FE238007008327C4FE23800700EF104B
:1004B000000FDDBB832604FC8542AE96638756029F
:1004C00099C66387760463871606850565B7930624
:1004D0001700C2060907C1824207B29641832380F2
:1004E0006600B306E60088A2CDB793061700832204
:1004F00004FEC206C182B296090723805600420755
:100500008322C4FD4183B306E6002380560075BFF5
:1005100093061700832284FDC206C182B2960907A2
:10052000238056004207832244FD4183B306E60040
:100530002380560093061700832204FDC206090794
:10054000C1824207B296418323805600B306E6007B
:100550008322C4FC5DBF37070020854613060700D1
:100560008D450345070099A005832A86ADB5B420C3
:10057000054793F6F60FE392E6F2B8301377F70FDC
:100580006309D70219C79306F00FE318D7F0C136F5
:1005900029B7D43037070020130634FF2300D700D3
:1005A000D830C8308546A309E4FE9945EF00F04AEB
:1005B000EDB5D830D4301377F70FA309D4FE9306E6
:1005C000004B1DE3832784FE370500201305050437
:1005D000D4CBEF00D0771305803EEF104064854602
:1005E000130634FF994521B57D1786061377F70F5B
:1005F000C9BFEFF2FFAA371402401C403707FFFCC7
:10060000611193E717001CC05C404145F98F5CC045
:100610001C403707F7FE7D17F98F1CC01C403707B9
:10062000FCFF7D17F98F1CC05C4041777D17F98F67
:100630005CC0B7079F001CC419251C4C370602007C
:1006400093E707021CCCB717014003A70740938626
:1006500007401377F7F023A0E74003A7074013678D
:10066000070823A0E74089479CCA02C002C21C4C6D
:1006700037070140A16693E717001CCC5C43D58F78
:100680005CC31C404167B7160240D98F1CC0096784
:100690009C42F18F3EC2824785073EC0924781E768
:1006A0008247E397E7FEB71702409C431397E700A2
:1006B0006358070685473EC2124785476310F70611
:1006C000B72702409843C176FD16719B98C39843A3
:1006D0001367170098C3B7170240D843D8C3D8434D
:1006E000758FD8C3D843C166558FD8C39843B70612
:1006F0000001558F98C3984393166700E3DD06FE0B
:10070000D843B7160240719BD8C3D843136727005C
:10071000D8C32147DC42B18BE39EE7FE210171B2D1
:1007200002C259BFEFF2DF97371702405C4337042C
:1007300000209146B18B130444016385D700A14684
:100740006380D704B7376E01938707601CC0B71664
:100750000240DC420840918313F7F700B7070020FE
:1007600093874700BA978C23DC4293F5F50F93F7F4
:1007700007083357B50099E3B13A2A8718C035B254
:100780005C43B777DC02938707C0C9B701A0970124
:1007900000209381210B138101FC17250000130514
:1007A000A54C970500209385E585170600201306C4
:1007B000668963FAC5008322050023A05500110550
:1007C0009105E3EAC5FE170500201305A58793856B
:1007D00081946377B500232005001105E36DB5FE14
:1007E000B722000093820288739002308D4273908A
:1007F0004280970200009382E28093E2320073907D
:100800005230EFF01FDF970200009382429F7390F7
:100810001234730020309C45611122C226C013F7A8
:10082000070113F3F70001C7D8413363E3009221B6
:100830001377F60F29C783230500014713048002AD
:10084000930480048546B395E600B376B6006392C0
:10085000D50293122700BD46B396560093C6F6FF05
:10086000B3F37600B3125300B3E3720063978706C5
:100870004CC90507A146E317D7FC232075001307D1
:10088000F00F6378C70483234500A1461304800258
:10089000930480040547B312D7003377560063945E
:1008A000E202139726000117BD45B395E50093C5F5
:1008B000F5FFB3F375003317E300B363770063927A
:1008C0008702232A550085064147E395E6FC23224B
:1008D00075001244824421018280E39C97F80CC980
:1008E00049BFE39297FE23285500F1BF19C20CC9F6
:1008F00082804CC98280370301400327430093174D
:10090000350063D00702B707C0FFF517F98F370727
:100910000007D98FD9CD370700F07D17798DC98FA2
:1009200049A8635D0500B707E0FFED17F98F3707AA
:100930000007D98FBDCD06050581D5B7B7073000B3
:10094000931605013376F500C1826313F60237066C
:1009500000F97D16B377C70003274300798E232261
:10096000C300A1C95581131745003395E60045BF63
:100970009317B50063D407029357050113F6F700E8
:100980008D47B397C70093C7F7FFF98F3707000765
:10099000D98F85C1135755011207C1BF5581120563
:1009A0003395A6009347F5FFF98F37070007D98FD6
:1009B000BDF5370701405CC38280EFF26FEE111185
:1009C00046212A8428002EC0712CC246C204C18050
:1009D00093F404FCB7450F00938505243685C204C3
:1009E00036C2C180EFF00FEF458D420541814AA02C
:1009F0001E209246C207C183F99BC207C1831EA075
:100A000082479043E1679387076A9315160063E670
:100A1000C7043685EFF00FECAA8742054181914665
:100A20006373D50091471395070141814AAC1E209D
:100A3000024793E717001EA01E2056233227C20745
:100A4000C183D18E93F757BFD58F1EA016275E277F
:100A5000D58F1EA471016FF04FE58247EA23B1677D
:100A6000FD176310F502B2953685EFF0AFE642054B
:100A700041819317450199E313651500A1675D8DC9
:100A800075B7B387C5008E07B385C7003685EFF00D
:100A90006FE44205418191675D8DE1BF1E2189C5EB
:100AA00093E717001EA18280C207C183F99BC2078A
:100AB000C183CDBF1E2189C593E707101EA1828087
:100AC000C207C18393F7F7EFC207C183C5BF1E21D9
:100AD00089C593E707401EA18280C207C18393F7AF
:100AE000F7BFC207C183C5BF0EA982800A2913754B
:100AF000F50F828093F7E50F19C293E71500C2073F
:100B0000C1831EA982805E290A2D42055D8D6D8DEF
:100B1000220521810D8D133515008280611102C0DF
:100B200002C293D7C5012AC23EC08247A205A18155
:100B300099CB9247D1073EC29247884321016D8DE0
:100B40003335A00082809247C181E107EDB723AA27
:100B5000A192828083A64193854718216390F60273
:100B60001C31639CD7023C219A0793E707F8B7E64C
:100B700000E093F7F70FBA962380F6408546935727
:100B800057003397E600544189CE938707048A07BC
:100B9000B7E600E0B69798C38280EDF33C219A0750
:100BA000F9B793870706E5B7377700401C4709C5B3
:100BB00093E727001CC78280F59BEDBFB777004005
:100BC0009843759B98C398431367270098C3B7F75A
:100BD00000E003A707D11367470023A8E7D0054724
:100BE0006311E50203A707D15D9B23A8E7D073003B
:100BF000501037F700E0832707D1ED9B2328F7D06B
:100C0000828083A607D103A707D193F60602136754
:100C1000870223A8E7D003A707D11377F7FD558FE5
:100C200023A8E7D003A707D11367870023A8E7D03D
:100C30007300501003A707D1136787007DB73717DC
:100C400002401C430E0593F777F05D8D08C3828048
:100C5000371702405C5309C593E717005CD38280C5
:100C6000F99BEDBFEFF2CFC3371702405C439146CB
:100C70002A84B18B6385D700A146638DD706B73729
:100C80006E01938707601CC0B7160240DC42918357
:100C900013F7F700B70700209387C702BA978C2392
:100CA000DC42184093F5F50F93F707083355B7006A
:100CB00081E73A85EFF00FC248C008C448C4B717AF
:100CC0000240DC43AD83FD8B13D737008A07F18BDD
:100CD000D98F93F637010D476373D700D1173707C4
:100CE000002013078701BA978C23EFF0AFBE08C826
:100CF0006FF0AFBB5C43B777DC02938707C061B787
:100D000099C5371702401C4F5D8D08CF8280B717F9
:100D10000240984F1345F5FF798D88CF828099C5A1
:100D2000371702405C4F5D8D48CF8280B717024075
:100D3000D84F1345F5FF798DC8CF828099C53717F5
:100D400002405C475D8D48C78280B7170240D84794
:100D50001345F5FF798DC8C7828013575500854725
:100D60006319F700B71702409C4333D5A7000589E4
:100D70008280B7170240DC53CDBFB747014093874D
:100D80000780631CF500EFF2AFB1854511657D3733
:100D90008145116565376FF04FB18280EFF24FB03A
:100DA0001629F577FD17F58FF621DA252111D58F54
:100DB0001EA95625FD779387379FF58FD6212A8464
:100DC0002EC0D58F9625D58FB625D58F5EA55E29E9
:100DD000C207C18393F7F7CF5D8F5AA948005935F1
:100DE000B74701409387078082456312F406C247E4
:100DF0005A24139517003E9542070E0541873E95EC
:100E00008C41635807048605EFF0CFAC930540068C
:100E10002AC0EFF02FAC824793144500930540069B
:100E20003E85EFF0EFAD5E24C207C18763D50702B0
:100E30000E059305400613052503EFF0AFA91D89A4
:100E4000C98CC204C18006A461016FF00FA6B2472D
:100E500045B78A0555BF12059305400613052503BE
:100E6000EFF04FA73D89E9BF91C55E250967D98F8E
:100E70005EA582805A25F977FD17F98FD5BF13F744
:100E8000F50F85471583B395B7006319F7009307EE
:100E9000C500984301CED98D8CC3828089469307C3
:100EA0004501E318D7FE93070501E5B793C5F5FFA4
:100EB000F98DDDB793F5F51F4EA182804A21137598
:100EC000F51F82800A216D8D3335A000828013F7D3
:100ED000F50F85461583B397B6006311D7025A25DF
:100EE000F98F1A2101454207418381CB0545A18134
:100EF000B315B5006D8F3335E000828089466314E9
:100F0000D7001A29F1BF5A29E1BF1C21214793C7F5
:100F1000F7FF93F7F70F93968701E186860763D46F
:100F2000060093C717037D171377F70F93F7F70F93
:100F30007DF308313D8DA1471317850161870605B3
:100F40006354070013451503FD1793F7F70F137547
:100F5000F50FFDF38280EFF2AF9413052006EF004A
:100F6000207C6FF08F9493171600B29701111383B2
:100F70002700950722CC06CE26CA001093F7C77F1C
:100F80003301F1409317850021815D8D2E876880A4
:100F90008A8511EF1376F30F13052006EF00300357
:100FA000130104FEF2406244D244056182807DD286
:100FB00093042100814793961700BA969622232026
:100FC000C4FE2322B4FE13D58600A206C98E268550
:100FD000232464FE2326F4FE2328E4FE96A035375E
:100FE0008327C4FE032604FEA8A085078D040327DB
:100FF00004FF032384FE832544FEE3EEC7FA59BFB2
:101000001397150011112E9722CA26C806CC600826
:101010009307370093F7C77F232824FE3301F1405D
:101020002326A4FE8A86AE841377F70F01468145F6
:1010300013052006EF00B00B8A87814663F69602FF
:101040003E852322D4FE2324F4FEC135832784FE6B
:10105000AA85832644FEB0236301A602373500002B
:10106000130545AFEF10001E032104FF130144FEDA
:10107000E2405244C244710182800327C4FE1396A9
:1010800016008C333A96982385068D0722074D8FDC
:101090001AA26DB7EFF2CF8071112EC0B2853686DD
:1010A0003A84BE84C935024363080300A94763FD3F
:1010B00067001A85EF00B03609C481C4A685228571
:1010C000813711016FE07FFE131553003305654032
:1010D0000A051A950E05EF00F030F9BFEFE25FFC4C
:1010E0000965014681451305151BB53D1305803E75
:1010F000EF00502F6FE07FFBEFE29FFA51112AC003
:101100003D65AE8432848D47580081460146854551
:10111000130555C041370243630503003C82231089
:10112000F30099C03C839EA019C03C841EA03101ED
:101130006FE0BFF7EFE2DFF67111AE8432848A858B
:1011400013062100553F9DC42880EF10A078B737C3
:10115000000083A587AEEF102011B737000083A5EC
:10116000C7AEEF106010B737000083A507AFEF10D0
:10117000A03888C00DC02881EF10C075B7370000B7
:1011800083A547AEEF10400EB737000083A5C7AE6A
:10119000EF10800D08C011016FE03FF1EFE25FF04A
:1011A000116501468145130565F8753B1305401F20
:1011B000EF00F0266FE07FEFEFE29FEE71112A84DF
:1011C000396513072100854781460146854513058A
:1011D000854BC9353C8193F7F77FB337F0001CA0EE
:1011E00011016FE09FECEFE2BFEB0D650146814519
:1011F000130565648D3B5145EF0070226FE0FFEAF7
:10120000EFE21FEA0D65014681451305656FA13BBD
:101210005145EF00D0206FE05FE9C16769738146F7
:10122000FD17050313F7F60F6367B70013D78700A1
:1012300018B21CA282803307D5001823B98F21472A
:1012400093F21700858363860200B3C76700C20765
:10125000C1837D1775F78506F1B731119387760045
:1012600022C626C406C8400893F7C71F3301F140C1
:10127000138736008A844880CC80814763C7D704AF
:101280009385260026851386819393F5F50F2326F3
:10129000E4FE2328D4FE5137832604FF93878193ED
:1012A0008C230327C4FE9C333386D4002CA22697BC
:1012B000910626851CA393F5F60F21261301C4FE83
:1012C000C2403244A244510182803305F600082115
:1012D000B385F4008507E207A8A1E18745B7EFE2EF
:1012E0003FDC71110A862A84AE84053FB305940061
:1012F00018809C2105456307F70088319C801D8D6F
:101300001335150011016FE05FDAEFE27FD9044178
:10131000130181FD23AEA19202C602C802CA02CC0B
:1013200002CE02D002D202C202C489471384C19302
:101330006380F41A63EE97108547638EF414B74404
:10134000014013850480EFF05FA31C402C08138537
:101350000480DC4B02CE231201023ECCB7070C0006
:101360003ED0EFF0BFA3054693055052138504808D
:1013700039368547130700025C8348008547788229
:101380003AC03EC4EFF00FFD054693054042138579
:101390000480F5340247854748007882094758831E
:1013A0003EC4EFF02FFB854513850480753C184043
:1013B000B71701409387078054436385F600584769
:1013C0006316F70085451145EFF09F931840B71756
:1013D000014054436385F60058476316F70085457E
:1013E0004145EFF0FF911840B71701409387074040
:1013F00054436385F60058476317F7008545130586
:101400000002EFF0FF8F1C408D446C009A27C84308
:1014100026C8788641473ACAEFF0EFBF1C404147E3
:101420006C00962BC8473ACA748626C8EFF0AFBE48
:101430001C4001468E27C843EFF04FCB1C400146AD
:101440008E2BC847EFF08FCA130181026FE0FFC5F2
:101450000D476383E40C9146E393D4EE1165854513
:101460004505EFF0FF893705208085451105EFF030
:101470008FC80D4785463AC86C0061473715014053
:1014800074863ACAEFF02FB989477C8626CA6C0069
:1014900037150140BDA81165854513050502EFF01C
:1014A0003F86930700027C86B71401408D473EC8F3
:1014B0006C00E147138504403ECAEFF0CFB59307B7
:1014C00000047C8691473ECA6C001385044091A0BD
:1014D0001165854513051502EFF09F8237050080E1
:1014E00085451105EFF02FC185477C868D473EC8A5
:1014F000E1473ECAB7170140138507406C00EFF083
:101500008FB11147B717014064863ACA6C00138542
:101510000740EFF04FB025B511658545130515025D
:10152000EFF00FFE854537052080EFF0CFBC930725
:10153000000426C8B71401407C866C00E14713857F
:1015400004403ECAEFF02FAD930700029DBFEFE2CB
:101550003FB523AEA1925C4941113745014002C419
:101560003EC08A85B147130505807C8502C202C64C
:10157000EFF0DF8241016FE05FB3EFE27FB21384EF
:10158000C1931C4005468E27C843EFF02FB61C4080
:1015900005468E2BC847EFF06FB56FE01FB1EFE245
:1015A0003FB01384C1931C4001468E27C843EFF01F
:1015B000EFB31C4001468E2BC847EFF02FB36FE00E
:1015C000DFAEEFE2FFADAA842E84453F19E4130598
:1015D0004006B125E9376FE05FAD29458925B7475A
:1015E0000140138707803A8593050008EFF09F8D2F
:1015F000B7470140138707807DD58C203A857D143D
:10160000EFF05F8B1374F40F8504C9B7711122C01A
:10161000374401409305505213050480EFF03F8B8F
:101620001DC913050480EFF07F8983A7C19313754B
:10163000F50F05469853930540421423D84F36972B
:1016400008A39853130504801C23850793F7F70F0D
:101650001CA3EFF0DF82374401409305404213059D
:101660000480EFF0DF8609CD014693054042130563
:101670000480EFF0DF8083A7C19305479C4F98A3B8
:101680000244110173002030EFE29FA11301C1FD5C
:101690002AC22EC04545854502C402C602C802CAF8
:1016A00002CC02CE02D0EFF0AFE585453705200031
:1016B000EFF0EFE69146F1440D442C003715014060
:1016C000748426C822C6EFF00F9589462C00371582
:1016D0000140748426C822C6EFF0EF938247124778
:1016E00037540040FC86930700403ACAFC8737070E
:1016F000FFBF91674C08130504403ACC2310F10258
:10170000EFF0AFAB130504408545EFF02FB98545E9
:1017100013050440EFF0AFBB130141026FE0FF98E7
:10172000EFE21F98B7570040AA841304107D138777
:101730000740B70502003A85EFF04FBEB7570040AB
:1017400005C17D14138707406DF405456FE0FF95D3
:1017500083570440014593E707202310F440FDB769
:1017600085451385074037040300EFF0AFB4050447
:10177000B757004013850740A285EFF0CFB8B757A1
:1017800000407DD59395140013850740014693F5DD
:10179000E50FEFF02FB6B70707009304107D93878E
:1017A000270837540040BE8513050440EFF0AFB55D
:1017B00045F1B7070700FD1493872708FDF083570D
:1017C0000440094593E707202310F44041B7EFE2B6
:1017D0003F8D611137570040AA842E8432C0930791
:1017E000107D93060740B705020036853EC2EFF034
:1017F000EFB23757004041C1924793060740FD17AB
:10180000FDF3054521016FE05F8AB7050010B7576A
:1018100000409385050813850740EFF02FB019CDE0
:101820002945F52E0C20B7570040130714001385E7
:1018300007403AC2EFF04FAB12473A848504824723
:10184000E3C5F4FCB7040700938444083754004010
:10185000A68513050440EFF00FAB6DD98357044004
:101860001305400693E707202310F4404D2E014551
:1018700051BF8144E9B7854513050740EFF08FA3B9
:10188000B7070300850737570040BE85130507409B
:10189000EFF06FA7B707030037570040850765D5FE
:1018A0009395140013050740014693F5E50FEFF0FB
:1018B0006FA4370707009307107D13072708B75455
:1018C0000040BA85138504403EC2EFF0CFA355F126
:1018D00092473707070013072708FD17EDF383D753
:1018E0000440094593E707202390F44021BFEFE22D
:1018F0002FFB1111B75400402AC62EC032C836C47F
:101900003AC21304107D93870440B70502003E8558
:10191000EFF0CFA063060514B75700407D149387FE
:10192000074065F4054571016FE02FF8370400109A
:101930009307040881443ECAD2453754004013053A
:101940000440EFF0AF9D11CD2945D12C82471305FE
:1019500004408C23138717003ACCEFF0EF986247CE
:101960003AC0C2478504E3C9F4FC370407001304F6
:10197000440837550040A28513050540EFF0AF98A5
:101980006DD93755004083570540854513050540FF
:1019900093E707401EA137040300EFF0AF91050461
:1019A000B7540040A28513850440EFF0CF956DD960
:1019B000B2471385044005469395170093F5E50F4C
:1019C000EFF04F93B70703009304107D8907375456
:1019D0000040BE8513050440EFF0EF9235EDB707E8
:1019E0000300FD148907E5F4CDA012478547631E67
:1019F000F7003757004083570740C207C18393F76A
:101A0000F7BFC207C1832310F740B7050010375452
:101A100000409385050413050440EFF02F9011CD8D
:101A200013050440EFF08F8CA24788A385073EC4BE
:101A30009247FD1793F7F70F3EC29247DDF73757EE
:101A40000040835707401305400693E70720231003
:101A5000F740F1220145C1BD1305803E6122F1BF6F
:101A60008247E38007F2C247E38D07F0854513857F
:101A7000044037040300EFF0EF830504B75400403F
:101A8000A28513850440EFF00F886DD9B247138506
:101A9000044001469395170093F5E50FEFF08F850D
:101AA000B70707009304107D938727083754004039
:101AB000BE8513050440EFF00F85E31905E6B7076F
:101AC0000700FD1493872708F5F083570440094564
:101AD00093E707202310F440B9B59307300219C1EA
:101AE0009307C0052380F1948280EFE26FDB03C58A
:101AF0000194A3800194054693851194C9396FE040
:101B0000CFDAEFE2EFD905477111930700026313B3
:101B1000E500C14785C105476391E502DC8103C546
:101B200001949305310005465D312945CD28110109
:101B30006FE0AFD793E73700D5B793E71700F9BF4A
:101B4000EFE20FD6938401942A849357550088209E
:101B5000711193E70704930531000546DC81EFF02E
:101B60001FC788207D88136404069305310005464D
:101B7000C081EFF0DFC511016FE02FD3EFE24FD24C
:101B80002A8403C5019471118A860947014681455B
:101B9000B93B08809C80B14522055D8D93172500D7
:101BA0003E950605EFE08FD20AA011016FE0EFCF5E
:101BB000EFE20FCFB707002003A54701B7157A0062
:101BC00093850520EFE00FD11375F50F2382A194C3
:101BD00093175500898F8A073E950E052391A1948E
:101BE0006FE0AFCCEFE2CFCB37F400E05C40AA85EA
:101BF000F99B5CC003C54194EFE0CFCB08C8232418
:101C000004001C4093E717001CC0B7F700E0D8435E
:101C1000058B75DF9843799B98C36FE00FC9EFE29E
:101C20002FC837F400E05C40AA85F99B5CC003D55F
:101C30002194EFE02FC808C8232404001C4093E738
:101C400017001CC0B7F700E0D843058B75DF984339
:101C5000799B98C36FE06FC5EFE28FC47111AE84BA
:101C60000144635FC402B7470140138707803A8588
:101C70009305000432C0EFF0EFA4B747014013878B
:101C8000078002466DD533878400830507001385DE
:101C900007800504C205C181EFF0CFA10246D1B78C
:101CA000328511016FE06FC0411106C62EC00DCD07
:101CB0001841AA8705C358417D5511CB8546631B42
:101CC000D70098472300070023A207000545B2402C
:101CD000410182809847824614A39847050798C718
:101CE000D8437D17D8C3DDB705468A85B537F9BF18
:101CF000011122CC2EC206CE26CA2A848147930522
:101D00000002634506029245BE95838505008DE578
:101D100063D8C70263D4E702198E1305000293F556
:101D200026002AC089C501E7930500032EC0858AD5
:101D3000814495EAB2840DA08507F1B71D8EF1BFED
:101D40000146E1BF824522853AC832C63EC4A93F5A
:101D5000A24732464247FD14E34690FEB2846353E5
:101D600006008144058E63C7E702A6879246338743
:101D7000974036978305070095EDB284634490043D
:101D8000635306000146F2406244D2443305F60034
:101D9000056182801D8FBA8793050003228532C8B2
:101DA0003EC63AC41137B24722474246FD17EDF707
:101DB000BA9465BF228532C63EC4FD35A24732467D
:101DC00085076DB78245228532C43EC2F13DFD14C0
:101DD0002246924765B7397106DE22DC26DA3EC21A
:101DE00032833A8689ED92469307000301476C08D7
:101DF000FC86FD3DF2506254D25421618280AA8457
:101E00003684AE8791CA294701446317E30063D53E
:101E10000500B307B04005448646A3090102130735
:101E20003103938666FC36C49A853E8532CA3AC829
:101E30001AC63EC0EFE0CFACA546824732434247C8
:101E4000524663D4A600A2463695130505039306B1
:101E5000F7FFA30FA7FE9A853E8532CC3ACA1AC86F
:101E60003EC636C0EFE00FA7B24742435247624634
:101E700063F9670401CC29CA9247898BB1C79305DE
:101E8000D002268532C40D3522467D169247918BAD
:101E900095C306479307100632C4930500032685B1
:101EA000631EF7021135930580072685F53B224610
:101EB000090479161647924682452685153D2295D6
:101EC00015BFAA8702478DB782469307D002014407
:101ED000A38FF6FE9307E7FF3EC04DBFF133930596
:101EE0008005E1B70145828001458280130181FDB3
:101EF00022D026CE06D22AC4AE82328402C68144C3
:101F00008385020089EDA24781C781453E85693BF3
:101F1000925002542685F244130181028280930775
:101F200050026388F500224516C88504B53BC242BD
:101F300039A88387120013871200639CB7002245DB
:101F4000930550023AC88D3342478504BA82850210
:101F500045BFD5DB9306B0026389D70463C8F6009A
:101F6000930630026386D704814705A09306D0020A
:101F7000638AD70093060003E398D7FE13872200F5
:101F8000894721A01387220085478306070013068F
:101F9000B0026383C6046341D60213063002638B2A
:101FA000C602BA820145A54681A0138722006DBFF3
:101FB000138722009147D1BF1306D0026389C60060
:101FC00013060003E39FC6FC93E7270031A0050733
:101FD0008547C1BF93E747000507E1B71316250002
:101FE000329506053A95850203860200130706FD21
:101FF0009375F70FE3F4B6FE1307E0029946631EEC
:10200000E60085028146A54503860200130606FD0B
:102010001377F60F63F5E50236C603870200130651
:10202000A006630DC70A6343E6021306C0046307F4
:10203000C70A13068006630CC70881452DA81397AD
:102040002600BA968606B29685027DBF1306400723
:102050006306C7081306A0076302C7081306C00675
:102060008145631AC700038612008D456314E6009C
:10207000850291458502038602009303000613073B
:10208000100663C4C300130710049303700663C4EF
:10209000C30693035006635576189303700463C117
:1020A000C30493055004635DB61613073004E310B0
:1020B000E6EA18409303440016CA230CE1001EC848
:1020C000A30C01000147BE862A862C0849A8038676
:1020D00012008145E311E6FA890271BF8502B1BFA2
:1020E00093063006E307D6FC63CFC6069306800549
:1020F0006303D602A9BD930630076304D60463CBFD
:10210000C6029306F0066304D60E9306000793E713
:102110004700E31ED6E291466391D50C93038400F9
:102120000C40504016CA3AC23EC01EC8AA8701479A
:10213000C14681A893065007630AD6069306800716
:1021400045BF1840B7360000930344009385C6B1DD
:1021500011C3BA85324716CA1EC8BE862A862245D2
:10216000EFF01FB90DA091466394D502930384004C
:102170000C40504016CA3AC23EC01EC8AA87054746
:10218000A94622458533C243AA941E84D242C1B3D4
:10219000B2460C4016C836C23AC011042A8785469A
:1021A00029462245EFF03FC3AA9451B39146639D5F
:1021B000D500930384000C40504016CA3AC23EC07A
:1021C0001EC8AA8701476DBFB2460C4016C836C26A
:1021D0003AC011042A878146E1B7B24616C80C40BE
:1021E000414636C23AC011042A8781465DBF9146F6
:1021F000639ED500930384000C40504016CA3AC237
:102200003EC01EC8AA870147A146A5BFB2460C40E2
:1022100016C836C23AC011042A878146214651B7F2
:102220000C401306840040403AC22A87224532C837
:102230003EC02286B687A94616CAEFF0FFCAAA9406
:102240004244A9B71301C1FD2EC832CAAA8510089D
:10225000014506C636CC3ACE3ED032C0EFF01FC99B
:10226000B240130141028280011122CC1354750146
:1022700026CA06CE931495001374F40FA5809356C6
:10228000F5014DCC9307F00F630CF40CB707000475
:102290008E04DD8C130414F88147014613D57501B3
:1022A000139795001375F50F2583FD814DC5130315
:1022B000F00F630D65020E07130515F837030004D0
:1022C000336767002A9481431305140033C3B600B3
:1022D0002AC03D459A826362F51017150000130568
:1022E000A5848A07AA979C433E9502851304F40FA0
:1022F00061EB93E727008943C1BF01431307F00F48
:10230000B7074000F2406244A6075E07A583131595
:10231000F301D98FD2445D8D05618280AE82BA848B
:102320001E8689476306F60A8D47E308F6FC854753
:102330001683631EF61A01478147E9B7B5E013D546
:102340007501139795001375F50F914701440546E4
:102350002583FD8129FD19EB93E717008543ADB770
:102360009DE8A1471304F00F09460DBF3A8532C816
:102370003EC62EC436C23AC02D2502471303B5FF10
:10238000098C331767001304A4F881439246A245D1
:10239000B247424615BFB1471304F00F0D46FDBDCD
:1023A00026852EC236C0F52B9307B5FF1304A0F87F
:1023B000B394F400098C8147014682469245F9BDE9
:1023C00093E737008D4309B78947B682E31EF6F4D9
:1023D00016831307F00F814735B7C167FD17B3F3B5
:1023E000F400F98FC18041831E85BE85EFD09FCC5C
:1023F000AA82BA851E85EFD0FFCBAA83BE8526852B
:10240000EFD05FCBAA87BA852685EFD0BFCA13D796
:102410000201BE93BA9363F4F300C1673E95C167AE
:10242000FD17B3F4F300C204B3F2F200A692939442
:10243000620093D30301B334900093D2A201AA9314
:10244000B3E2540093946300B3E4540093974400C0
:1024500063D70700024493D714008588DD8C1307E7
:10246000F407635FE00293F7740099C793F7F400F1
:1024700091466383D70091049397440063D8070083
:10248000B70700F8FD17FD8C130704089307E00F4A
:1024900063CBE70493976400A5831377F70F9DB58B
:1024A0008547B386E74011C76D4601478147E34B37
:1024B000D6E41304E40933948400B3D7D400B334CE
:1024C0008000C58F13F7770019C713F7F7009146FF
:1024D0006303D700910713975700634C07009A07CF
:1024E000A583014705B51307F00F814721BD0244BD
:1024F000BDB70547814739B5B7068000FD163111D4
:10250000B3F7A6001357750113D675017D811377B4
:10251000F70FED8E22C626C41376F60F06C8930376
:10252000F00F3EC22AC03A8493943700FD81939203
:1025300036003303C7406303761093C51500630E5E
:10254000B5106354600C631106106388021E7D137E
:10255000B3875440630703029307F00F630BF7162A
:10256000ED4763CA672893070002B3876740B397B4
:10257000F20033D36200B337F000B367F300B387E0
:10258000F440139757006354071AB7040004FD146E
:10259000E58F3E853EC2312192476D15B397A70066
:1025A0006341851C018D050593020002B382A240A0
:1025B000B3925700B3325000B3D7A700B3E7570028
:1025C000014413F7770019C713F7F7009146630327
:1025D000D700910713975700635F071482460504DD
:1025E0001307F00F13F516006309E4169A07A58385
:1025F0001377F40FC2403244A6075E07A5837E0519
:102600005D8FA244598D510182806315030A130620
:1026100017001376E60F6311061663130722638013
:102620000420E38902FCB38754409396570063D299
:102630000622B387924001442EC061B7E38F02EEB9
:10264000630DB50AE35360FC9307F00F6303F708CB
:10265000B7070004B3E2F20021B76350600A51C229
:102660009307F00F6307F706B7070004B3E2F20021
:10267000ED4763CC671C93070002B3876740B397AD
:10268000F20033D36200B337F000B367F300A697CC
:1026900013975700635D070805041307F00F630ED7
:1026A000E40AB706007E13D71700FD16858B758FD9
:1026B000D98F01BFB307E64063160710638804147F
:1026C000FD17638E07181307F00F6314E6102EC072
:1026D00036C29247C1C301451307F00FB707400048
:1026E00011BF638C02047D13B3875400E30203FA25
:1026F0009307F00FE31EF7F6E9BF631B030813040B
:1027000017001376E40F6311061263150710638D2B
:102710000414E38102EEB387540013975700014479
:1027200063570700370700FC7D17F98F054413F73F
:102730007700E31B07E88D833EC29307F00FE30A9F
:10274000F4F8924782461377F40FA607A58313F592
:1027500016004DB5824713F517001307F00F814798
:1027600051BDB70200FCFD12B3F7570013F7770015
:10277000098CE31B07E4C1B7B38754401397570094
:10278000634C070AE39707E00145014781479DB580
:10279000B307E6403DC31307F00FE30BE6F237073C
:1027A0000004D98C6D476346F70C130700021D8F98
:1027B0003397E400B3D7F4003337E000D98F96970E
:1027C0003284F9B51307F00FE303E6F0370700048E
:1027D000D98C6D47634DF706130700021D8F3397A1
:1027E000E400B3D7F4003337E000D98FB387F24069
:1027F00032842EC079B3854759B3ADC8FD17A5CF34
:102800001307F00FE310E6FA36C2E1B536C23284A0
:102810002EC025B7E38E04EAE38D02EA6DBD638D19
:1028200002022E85B687F9B39307F00FE307F4F29F
:10283000B38754008583E5BDB38792402EC091BB1A
:10284000E1FCE38A02E82EC061B5854789B585477A
:1028500071BF0144E39D07EC0145814761BBB3872C
:10286000924032842EC031BBB68769B336C23284FF
:10287000E9B58547A9B7B3875400328411BD135712
:102880007501370680009307F6FF1377F70F93055E
:10289000E007B3F6A7009357F501014563F4E5009F
:1028A00099C3828082809307E0097D55E3EBE7FEC0
:1028B00093055009B3E7C60063D7E5001307A7F6F1
:1028C0003395E7008280130560093307E54033D56F
:1028D000E7008280511106C422C215CD2A84D1207E
:1028E0009307E0093387A7409307600963C0E704B3
:1028F000A1469377F70F63D5A60061153314A400A2
:1029000026042580260413559400A2401244DE07B5
:102910005D8D310182800144260413559400A2404C
:1029200012448147DE075D8D310182809307900953
:1029300063DDE7009306B5019547B316D400898F90
:10294000B336D0003354F400558C954763D6A700B6
:102950009307B5FF3314F400B70600FCFD16937718
:1029600074003376D40085C39377F4009145638C6B
:10297000B70011069317560063D707009307F009B5
:10298000758E3387A74013146600258026041355DF
:102990009400A24012449377F70FDE075D8D31015A
:1029A0008280C167637CF5029307F00F1307000272
:1029B00063EBA700970700009387071BAA9788235C
:1029C0003305A74082802181970700009387C719AC
:1029D000AA97882361473305A7408280B707000183
:1029E000636DF5006181970700009387E717AA9749
:1029F000882321473305A740828041819707000043
:102A000093878716AA97882341473305A74082807A
:102A1000B3C7A5008D8B3307C50081E78D4763E7FA
:102A2000C702AA87637EE50A942185078505A38FDF
:102A3000D7FEE3EBE7FE8280942185078505A38F0F
:102A4000D7FEE3EBE7FE0244110182809376350066
:102A5000AA8789CA942185078505A38FD7FE93F697
:102A60003700C5BF9376C7FF138606FE63F5C7061A
:102A7000711122C0C04903A3050083A38500C0CB08
:102A8000804D23A0670003A3450080CFC04D23A243
:102A9000670083A2C50003A3050193854502C0CF4B
:102AA00003A4C5FF23A4770023A6570023A867002B
:102AB0009387470223AE87FEE3EEC7FAE3F3D7F826
:102AC00090419107910523AEC7FECDBF904191077C
:102AD000910523AEC7FEE3EBD7FEE3E7E7F4828080
:102AE000828000000000C84200002F4300008037B1
:102AF00000003442496E76616C6964204352432081
:102B00003078253032782C20657870656374656480
:102B1000203078253032782A0D0A0000286E756C36
:102B20006C290000B6F8FFFFFAF7FFFFFAF7FFFF86
:102B3000F8F7FFFFFEF7FFFFFEF7FFFFD6F7FFFFF7
:102B4000F8F7FFFFFEF7FFFFD6F7FFFFFEF7FFFFE7
:102B5000F8F7FFFFA4F8FFFFA4F8FFFFA4F8FFFFBA
:102B6000D6F7FFFF00010202030303030404040479
:102B70000404040405050505050505050505050509
:102B800005050505060606060606060606060606E9
:102B900006060606060606060606060606060606D5
:102BA00006060606070707070707070707070707B9
:102BB00007070707070707070707070707070707A5
:102BC0000707070707070707070707070707070795
:102BD0000707070707070707070707070707070785
:102BE0000707070708080808080808080808080869
:102BF0000808080808080808080808080808080855
:102C00000808080808080808080808080808080844
:102C10000808080808080808080808080808080834
:102C20000808080808080808080808080808080824
:102C30000808080808080808080808080808080814
:102C40000808080808080808080808080808080804
:102C500008080808080808080808080808080808F4
:042C60000808080850
:102C64001200000001020304050607080102030420
:102C740005060708006CDC020204060804080C10B0
:102C84000810182010203040204060800102030406
:102C940005060708010203040506070800000000F2
:00000001FF
